{
  "address": "0x680E1fb5CF6f1E0d04166a71719A4789E8D79A41",
  "abi": [
    {
      "inputs": [
        {
          "internalType": "uint256[2]",
          "name": "_pA",
          "type": "uint256[2]"
        },
        {
          "internalType": "uint256[2][2]",
          "name": "_pB",
          "type": "uint256[2][2]"
        },
        {
          "internalType": "uint256[2]",
          "name": "_pC",
          "type": "uint256[2]"
        },
        {
          "internalType": "uint256[15]",
          "name": "_pubSignals",
          "type": "uint256[15]"
        }
      ],
      "name": "verifyProof",
      "outputs": [
        {
          "internalType": "bool",
          "name": "",
          "type": "bool"
        }
      ],
      "stateMutability": "view",
      "type": "function"
    }
  ],
  "transactionHash": "0x3503875ad8b7194c59db4a5f3585585e569f4a21d897c9750d598885c65f8372",
  "args": [],
  "numDeployments": 1,
  "solcInputHash": "bfd183eb7fcdc59d523b144cedf6d586",
  "bytecode": "0x60808060405234601557610d82908161001a8239f35b5f80fdfe60806040526004361015610011575f80fd5b5f3560e01c63f054a9a314610024575f80fd5b34610123576102e03660031901126101235761003f36610127565b3660c4116101235761005036610134565b366102e4116101235761011c9161040060405261006f61010435610142565b61007b61012435610142565b61008761014435610142565b61009361016435610142565b61009f61018435610142565b6100ab6101a435610142565b6100b76101c435610142565b6100c36101e435610142565b6100cf61020435610142565b6100db61022435610142565b6100e761024435610142565b6100f361026435610142565b6100ff61028435610142565b61010b6102a435610142565b6101176102c435610142565b6109a7565b5f5260205ff35b5f80fd5b9060049160441161012357565b9060c4916101041161012357565b7f30644e72e131a029b85045b68181585d2833e84879b9709143e1f593f0000001111561016b57565b5f805260205ff35b604051917f1c2d673d1f0e42d79d2e50cad72d06903cbcae0753689ac127a585a0ec32522083527f2036bcfab337dd3d7cbcec047c6c40f7659f0be3850da25079847e21d0f6fa6460208401526040830190815260408360608160076107cf195a01fa1561016b57815190526020810151606083015260409160809060066107cf195a01fa1561016b57565b604051917f2bfd03b479496ab6295bf3d30e611040512b70b518bc73b81d4653eb2c3053c183527f0520af87fd625d3c3bfea741b3b3b3b43831739da436c9222100d8082c02c10460208401526040830190815260408360608160076107cf195a01fa1561016b57815190526020810151606083015260409160809060066107cf195a01fa1561016b57565b604051917f2dca5c10c2c1a9b4f4cfadef308e135efcccd59e3a9149c3184418c25fba6dcb83527f1f12afc9a4442ea4a4636323607d18890f9a41e240e6f0d3b2b5778f27b6e85260208401526040830190815260408360608160076107cf195a01fa1561016b57815190526020810151606083015260409160809060066107cf195a01fa1561016b57565b604051917f29483e9a647fc129cad6303dd5287d49c22b1d0fa097e881d77991b8b2dfc1d783527f0e5ae400904c31720b197336943386363fab41ad78fc54fdcf7eaef2431d737160208401526040830190815260408360608160076107cf195a01fa1561016b57815190526020810151606083015260409160809060066107cf195a01fa1561016b57565b604051917f2294860959e125137577733569bdd0025a58c4363542e50526448b5bb24e499e83527f1d1f5d73021437f1c2752ae690306c4eb9ed9141347a8347259b053bf226081460208401526040830190815260408360608160076107cf195a01fa1561016b57815190526020810151606083015260409160809060066107cf195a01fa1561016b57565b604051917f1c033c2a04f0aa469e10929549d47ec184b2886543424d7c0105a0646c759d9183527f227f33d682aa744e421367f763af1b6494405777b05354f470c9b8ccfb765bbd60208401526040830190815260408360608160076107cf195a01fa1561016b57815190526020810151606083015260409160809060066107cf195a01fa1561016b57565b604051917f25becacde40618597c390a9306951e147c961a09830cb68b0e8806151f17cfda83527f1c3f4d43940f3f09fd9557ec33504cf06cdca8f142bfa192bbb63cd16303f68860208401526040830190815260408360608160076107cf195a01fa1561016b57815190526020810151606083015260409160809060066107cf195a01fa1561016b57565b604051917f09717b18d921a0fa7556b770e90d29a76a6d29abfc813ffdc90ec1531206d05483527f286a4d2bb9891faaa892e859e50b8a83e2b09c58f3a538cab80674d1456c78a260208401526040830190815260408360608160076107cf195a01fa1561016b57815190526020810151606083015260409160809060066107cf195a01fa1561016b57565b604051917f11ffe6ded57f58e1a200fe745f70f9d50c3f7b414ae3c64ab95414a03c93529a83527f289c3c0826bb1b2e30b12734213dc05eb55debe9ba96f42b9caa3b70fab4dbad60208401526040830190815260408360608160076107cf195a01fa1561016b57815190526020810151606083015260409160809060066107cf195a01fa1561016b57565b604051917f08475a19fd0d2fe887f5c5650358b7b9ebc01fd2c5e7668f3a99cf09a758632b83527f0473b82c4f1e8fa9fdc80c7d32ed30694340ad3f91c4bf6c10813bab372b7a9060208401526040830190815260408360608160076107cf195a01fa1561016b57815190526020810151606083015260409160809060066107cf195a01fa1561016b57565b604051917f1b35ce3e70c261b8f40482628ab977345c5a73dc888885fad6ec41bbfc6e344c83527f1c2bd4d0ae0a39fb67caf1ac7d2c36439713e6d1e9315c9fdf3acd26b78b839f60208401526040830190815260408360608160076107cf195a01fa1561016b57815190526020810151606083015260409160809060066107cf195a01fa1561016b57565b604051917f072601582795e8c75b8c9dc6f3c141664211d5a420ad323f8ae59bde84338da483527f04a485237a885395b201f52491ae400a835718355b706bb90376f3ab15d50e3c60208401526040830190815260408360608160076107cf195a01fa1561016b57815190526020810151606083015260409160809060066107cf195a01fa1561016b57565b604051917f2a9a39ab01f303b2484303ade0f16afefd149d7bd839257699ef44affcc7047c83527f0805e394508552d4b506666e5597945c65052213488809fc64fb94768d90ab4260208401526040830190815260408360608160076107cf195a01fa1561016b57815190526020810151606083015260409160809060066107cf195a01fa1561016b57565b604051917f1d4e169bb65d9bbdf87a07f5fbb5b62d843baba1a692dcafbaa576acd516ca9f83527f1aa7611bd4337539138a193aac9b3a547e85c00c4fa741edbf3ecf156e3fa8a860208401526040830190815260408360608160076107cf195a01fa1561016b57815190526020810151606083015260409160809060066107cf195a01fa1561016b57565b604051917f23ba0387b3eb09bb4db755584c888ae9a459a1ea05570f1eabe416e4b493914a83527f15391a2be8ac017364a443b32d0ef8fee9ac520f13263dcd848479a652a8425d60208401526040830190815260408360608160076107cf195a01fa1561016b57815190526020810151606083015260409160809060066107cf195a01fa1561016b57565b907f30644e72e131a029b85045b68181585d97816a916871ca8d3c208c16d87cfd47602080937f28292d88b11c85f94382337ce9fe89209d70a87c06901d1cbb9af429cbed451b6080527f122d78c671a26f555c5438040b00090da23e1eeed6ffebace270d5c0bbf775c760a052610a23610104356080610173565b610a316101243560806101ff565b610a3f61014435608061028b565b610a4d610164356080610317565b610a5b6101843560806103a3565b610a696101a435608061042f565b610a776101c43560806104bb565b610a856101e4356080610547565b610a936102043560806105d3565b610aa161022435608061065f565b610aaf6102443560806106eb565b610abd610264356080610777565b610acb610284356080610803565b610ad96102a435608061088f565b610ae76102c435608061091b565b80356101005201358103066101205260443561014052606435610160526084356101805260a4356101a0527f2d4d9aa7e302d9df41749d5507949d05dbea33fbb16c643b22f599a2be6df2e26101c0527f14bedd503c37ceb061d8ec60209fe345ce89830a19230301f076caff004d19266101e0527f0967032fcbf776d1afc985f88877f182d38480a653f2decaa9794cbc3bf3060c610200527f0e187847ad4c798374d0d6732bf501847dd68bc0e071241e0213bc7fc13db7ab610220527f304cfbd1e08a704a99f5e847d93f8c3caafddec46b7a0d379da69a4d112346a7610240527f1739c1b1a457a8c7313123d24d2f9192f896b7c63eea05a9d57f06547ad0cec8610260526080516102805260a0516102a0527f198e9393920d483a7260bfb731fb5d25f1aa493335a9e71297e485b7aef312c26102c0527f1800deef121f1e76426a00665e5c4479674322d4f75edadd46debd5cd992f6ed6102e0527f090689d0585ff075ec9e99ad690c3395bc4b313370b38ef355acdadcd122975b610300527f12c85ea5db8c6deb4aab71808dcb408fe3d1e7690c43d37b4ce6cc0166fa7daa610320528035610340520135610360527f26f616eccc08e39a3b5d3c1ed486fe617f682c02597e48616af52815823fbb34610380527f2dc12044a6160bf6b66667e8197b2f61e32c93892c7e7b45e19e826b4c4347086103a0527f1e0bef9a2d729afee244ae17a1e95f197814503d363a6a2ef0cdd53d12b0115a6103c0527f1a96542c892dadb43fa9424d91ab34a445e609486daaa2e9c26c615dd66fe3a06103e05260206101006103008160086107cf195a01fa61010051169056fea2646970667358221220f888e138039dfdbccc8185ff05963efa9ff38e6b259bf825efe8c32c7b1efb1f64736f6c634300081b0033",
  "devdoc": {
    "kind": "dev",
    "methods": {},
    "version": 1
  },
  "userdoc": {
    "kind": "user",
    "methods": {},
    "version": 1
  },
  "storageLayout": {
    "storage": [],
    "types": null
  }
}