{
  "address": "0xe01C5053c1a48187879DC4Ddc863Ef2c7C908D49",
  "abi": [
    {
      "inputs": [
        {
          "internalType": "uint256[2]",
          "name": "_pA",
          "type": "uint256[2]"
        },
        {
          "internalType": "uint256[2][2]",
          "name": "_pB",
          "type": "uint256[2][2]"
        },
        {
          "internalType": "uint256[2]",
          "name": "_pC",
          "type": "uint256[2]"
        },
        {
          "internalType": "uint256[63]",
          "name": "_pubSignals",
          "type": "uint256[63]"
        }
      ],
      "name": "verifyProof",
      "outputs": [
        {
          "internalType": "bool",
          "name": "",
          "type": "bool"
        }
      ],
      "stateMutability": "view",
      "type": "function"
    }
  ],
  "transactionHash": "0x19b6cef16f00f809e1038e671961ab01f6fd6de7e0db5e318ea6ae4e5ff67143",
  "args": [],
  "numDeployments": 1,
  "solcInputHash": "adf6f023f36954e263451b9e74982ad1",
  "bytecode": "0x60808060405234601557612c9f908161001a8239f35b5f80fdfe60806040526004361015610011575f80fd5b5f3560e01c637d40902614610024575f80fd5b34610363576108e03660031901126103635761003f36610367565b3660c4116103635761005036610374565b366108e4116103635761035c9161040060405261006f61010435610382565b61007b61012435610382565b61008761014435610382565b61009361016435610382565b61009f61018435610382565b6100ab6101a435610382565b6100b76101c435610382565b6100c36101e435610382565b6100cf61020435610382565b6100db61022435610382565b6100e761024435610382565b6100f361026435610382565b6100ff61028435610382565b61010b6102a435610382565b6101176102c435610382565b6101236102e435610382565b61012f61030435610382565b61013b61032435610382565b61014761034435610382565b61015361036435610382565b61015f61038435610382565b61016b6103a435610382565b6101776103c435610382565b6101836103e435610382565b61018f61040435610382565b61019b61042435610382565b6101a761044435610382565b6101b361046435610382565b6101bf61048435610382565b6101cb6104a435610382565b6101d76104c435610382565b6101e36104e435610382565b6101ef61050435610382565b6101fb61052435610382565b61020761054435610382565b61021361056435610382565b61021f61058435610382565b61022b6105a435610382565b6102376105c435610382565b6102436105e435610382565b61024f61060435610382565b61025b61062435610382565b61026761064435610382565b61027361066435610382565b61027f61068435610382565b61028b6106a435610382565b6102976106c435610382565b6102a36106e435610382565b6102af61070435610382565b6102bb61072435610382565b6102c761074435610382565b6102d361076435610382565b6102df61078435610382565b6102eb6107a435610382565b6102f76107c435610382565b6103036107e435610382565b61030f61080435610382565b61031b61082435610382565b61032761084435610382565b61033361086435610382565b61033f61088435610382565b61034b6108a435610382565b6103576108c435610382565b612624565b5f5260205ff35b5f80fd5b9060049160441161036357565b9060c4916101041161036357565b7f30644e72e131a029b85045b68181585d2833e84879b9709143e1f593f000000111156103ab57565b5f805260205ff35b604051917f0f31823d4b6d675e01d38b1ec6f91eea87b94ceba0033ea57a2a446165e4db7483527f187994ef99222b7f850a494d1222e1ace8f781a734d932ce6a12ce7a95ed907c60208401526040830190815260408360608160076107cf195a01fa156103ab57815190526020810151606083015260409160809060066107cf195a01fa156103ab57565b604051917f259893bb9fae21a1593589af6c3fe4b60fa9ad127f2dd5b7157e9b5f26afb50683527f0eb156d70919b77de377d9bcdce5d1528d9e0488ecb67f0c9ec19d153b50f19460208401526040830190815260408360608160076107cf195a01fa156103ab57815190526020810151606083015260409160809060066107cf195a01fa156103ab57565b604051917f0d7f960c597623b6426279b889197ce81d3af08c72288be498cced5ec1d68c9883527f180b0955c96b5da9361aab846e95b46c15d2be70fa7862ef465f48e9ad7fa84460208401526040830190815260408360608160076107cf195a01fa156103ab57815190526020810151606083015260409160809060066107cf195a01fa156103ab57565b604051917f10da4868639a1f580962b48dc1162c248dd75802a5268558b8733c3c7c8c254483527f0e6411451c4c81a279ed14c2d399c1b3324d713e23029bafcc22982bf44010dd60208401526040830190815260408360608160076107cf195a01fa156103ab57815190526020810151606083015260409160809060066107cf195a01fa156103ab57565b604051917f068ea17350e8d6756ac7b8fab0480141271898d7d673818e2be33c319906201283527f1e040633c40c6b1aa3c8c78a8b0cd59ae2dd0f92a5fb357f05e3503b83c76b4b60208401526040830190815260408360608160076107cf195a01fa156103ab57815190526020810151606083015260409160809060066107cf195a01fa156103ab57565b604051917f129ced836ddcc289d03a1280678a5c27901b3697c6d4c321e43598c844ea593983527f1fc2cb15789e198aaeb6b800d50c070ae24747c9d351128e74cc5a3f8f1df7f160208401526040830190815260408360608160076107cf195a01fa156103ab57815190526020810151606083015260409160809060066107cf195a01fa156103ab57565b604051917f305b68e1f3b838b8290c7aca08cc661b9dffef1b8cda745794936a43c44735a283527eef8542dd2516c72d360ff95af324edbbd0ed98ddeaefe3a26db41ffb7941bb60208401526040830190815260408360608160076107cf195a01fa156103ab57815190526020810151606083015260409160809060066107cf195a01fa156103ab57565b604051917f299d83f369fa98e46e5c8a4b3075f33f36f49036d25ed43be890234f3e387e4583527f027bc07e7ad9a4f02afa590b8ae6e94892c567bb5306ad164a4ce7ad8e66cb7e60208401526040830190815260408360608160076107cf195a01fa156103ab57815190526020810151606083015260409160809060066107cf195a01fa156103ab57565b604051917f13a9c352094bd63a6e94f88d0c9798d97e43eed1c95a8f38a696cd2ef7389ee083527f061821f9894eafd713f7bb143e3568487233b65062465b54a2a5c7894a5dc42360208401526040830190815260408360608160076107cf195a01fa156103ab57815190526020810151606083015260409160809060066107cf195a01fa156103ab57565b604051917f1ebcec2674c1a75c8cb1cf99d040fe541c1ac162e0a716fd902e8dbabdb1367183527f1ee1ec6cbc8129744741ebd121bdd0a1d8e02c3bd2b0918cb0d7d329ee6112e560208401526040830190815260408360608160076107cf195a01fa156103ab57815190526020810151606083015260409160809060066107cf195a01fa156103ab57565b604051917f2674055b3d86f832213a024a7774805e4070c1fa72d6012772aa16f7f3fa421a83527f04101123d83bfc0a4693a372f0e0f4f57b3a7b20c55ee044b0715db022b19b8360208401526040830190815260408360608160076107cf195a01fa156103ab57815190526020810151606083015260409160809060066107cf195a01fa156103ab57565b604051917f19673bf4c0e8ba817e57b190fbdef2a99ec99b4ca4d4234d1a17ad202284ffe183527f2422c9118b49c553587cb14eee2ba80b48341daf51ad1d651d15cc6ca64dd36260208401526040830190815260408360608160076107cf195a01fa156103ab57815190526020810151606083015260409160809060066107cf195a01fa156103ab57565b604051917f2364a11f4e3e3d3183571e80bcd374e48e109fd8135443c85c38f346ab36152983527f28e3a171814d23a790883eb1401749e833639e2f0c2c6c495b6a89db743851dd60208401526040830190815260408360608160076107cf195a01fa156103ab57815190526020810151606083015260409160809060066107cf195a01fa156103ab57565b604051917f15265567e5b7b8a4c8427210644f74a39b2d8afb6d7b947558e778df6fc27d8a83527f1fa4f9aa15ea5d667a9180919729f63c2c0d1b2b33f7c3163dc7ad51f3387e8360208401526040830190815260408360608160076107cf195a01fa156103ab57815190526020810151606083015260409160809060066107cf195a01fa156103ab57565b604051917f177564bd9735e685501c83e97568eab8445bea0154ffc9b561deb8f075c0633983527f2250ef7d9cfc472753bfa609d5457c7a934a729f072b8d4a8435673a7060367160208401526040830190815260408360608160076107cf195a01fa156103ab57815190526020810151606083015260409160809060066107cf195a01fa156103ab57565b604051917f182c0afdf224192d315042ecaa5acc502cf94509c63142f8b4d1e9c8c28bbfae83527f1df36a4a3e6dd14c1fa72a44c65fc81f62255ec7a25e54100d6890c75c78440160208401526040830190815260408360608160076107cf195a01fa156103ab57815190526020810151606083015260409160809060066107cf195a01fa156103ab57565b604051917f185b1ca31b691c098eae37418c6e5e7b4b7d4b2b448c6e503b17a3f56bbc302d83527f0de64f600d5217cdead613af8ffa43c10c3ca44361486aea43cfb82c2f48299360208401526040830190815260408360608160076107cf195a01fa156103ab57815190526020810151606083015260409160809060066107cf195a01fa156103ab57565b604051917f058de6bec6dadce257cbdda86eddf08c5c5c61bf2573179bbf9d0a633136b00a83527f1a27c323b642bfe7132b1e4705b8250256b6417063cd0172f628eadc4afb241360208401526040830190815260408360608160076107cf195a01fa156103ab57815190526020810151606083015260409160809060066107cf195a01fa156103ab57565b604051917f231cfd4bf18b755886c65a8e6c9e8462200c09d21b8e8cccc37dd88b29777d5883527f20b8ad4c4b34d9d424c6a9834780f0efaad83e41d8ecd620be3eff0ad490036a60208401526040830190815260408360608160076107cf195a01fa156103ab57815190526020810151606083015260409160809060066107cf195a01fa156103ab57565b604051917f2313815a51c061dc5046d009bf685e2f13b58ac8a61b35cb2be6e7ec8b571a6c83527f2b5ba697097f70b4147f6af883cdcdd24626b594077cd81af18dd17b7a3cc2d960208401526040830190815260408360608160076107cf195a01fa156103ab57815190526020810151606083015260409160809060066107cf195a01fa156103ab57565b604051917f2dc06d03a4aa62aeead00039d9cff696c353695bd41bdd0aaa5d79f7ee3695bd83527f2a413d5ba8721f392df2c3db061edca51626d482f4f2b7cb32c9bff6c948716a60208401526040830190815260408360608160076107cf195a01fa156103ab57815190526020810151606083015260409160809060066107cf195a01fa156103ab57565b604051917f04bff3bd907153bec61eabfa70bd0542414da751fc914048eb9768d12608e9e983527f20468535dab2c324ab924d34e7ad79841cea063073a48fa99f362bb53a1d675360208401526040830190815260408360608160076107cf195a01fa156103ab57815190526020810151606083015260409160809060066107cf195a01fa156103ab57565b604051917f2b0d839b82e091a29ef7181293d7d2a1a44ca4841554ec883813cd0c2291fea183527e312f2ca9a8daf1e6c20c3d923e34d9e90e7d9742ab18d0b16d336932dcee9a60208401526040830190815260408360608160076107cf195a01fa156103ab57815190526020810151606083015260409160809060066107cf195a01fa156103ab57565b604051917f2b6e8590e4a2c430c267b0c79270fe93abbb7b1d06e120e3270196829ca6856b83527f1f02743a9e1aceb2ce23c135ee36d0b3b25b863134a0318307e29633d97ce08a60208401526040830190815260408360608160076107cf195a01fa156103ab57815190526020810151606083015260409160809060066107cf195a01fa156103ab57565b604051917f04907a90ada99a45f699bef2468c3287337476bed3f02ab5d51f36ad2a3a5e7f83527f1e9c5c23f531d9418727c8cead39291c9728d042ba7b43fac910bf7c33edc9bb60208401526040830190815260408360608160076107cf195a01fa156103ab57815190526020810151606083015260409160809060066107cf195a01fa156103ab57565b604051917f291e7e83a9cacf4ba4bae99d18408406204dec2247028b7817cb337eba17107983527f1fc43587dd93eb51fa3fba60c5914b99a2944f49f0a02316c34b1f684e2e25ab60208401526040830190815260408360608160076107cf195a01fa156103ab57815190526020810151606083015260409160809060066107cf195a01fa156103ab57565b604051917f2aa52a5567f215470ecf410eb269f7797c9a79fa96909fe725ded282a402a9a583527f2002f164ae625519b558e672f150b28d4fb7ee38efd711b896b35adfc37a377260208401526040830190815260408360608160076107cf195a01fa156103ab57815190526020810151606083015260409160809060066107cf195a01fa156103ab57565b604051917f1e4c8a64dd80007166752203b41459c83743810f7f1ba98738425423a5c922ae83527f19c8d22084243f1ffa4e1af9c0d588afa0e651e215c0fd7b415d9ed4d623417e60208401526040830190815260408360608160076107cf195a01fa156103ab57815190526020810151606083015260409160809060066107cf195a01fa156103ab57565b604051917f18db529b0c7da08112a7ea1b0152f9b50310fddfd127e3a6ef7a75cdbfb0867083527f1a856a2dcbb52f313118cdaad29610f07c498aec6c9976422d667c8f48bc6f8f60208401526040830190815260408360608160076107cf195a01fa156103ab57815190526020810151606083015260409160809060066107cf195a01fa156103ab57565b604051917f239fe0f157d15b0b9009557ba5a4fee3bb583313f244bc6274773ebed5b3a29383527f277023148c07479bea533696afbe4ba71451e4c43fc4063c85585ddd082c786a60208401526040830190815260408360608160076107cf195a01fa156103ab57815190526020810151606083015260409160809060066107cf195a01fa156103ab57565b604051917f2880975de773de5fd1671b35f9bb06da251d7e881602e1c86b7a01670abfe67283527f153338bfdf5914703a8f36909fe5beedf1659e78762e16cd09b9d8173c5204c560208401526040830190815260408360608160076107cf195a01fa156103ab57815190526020810151606083015260409160809060066107cf195a01fa156103ab57565b604051917f1072a3e512654bea409a045867be1ece0bdcaaf737fe0fdeb679bbc15963c63983527f2b53e95fe7f9f0b2038380ae67de55f2a2d22cb1a799d4d890616a401c9b580760208401526040830190815260408360608160076107cf195a01fa156103ab57815190526020810151606083015260409160809060066107cf195a01fa156103ab57565b604051917f150123d021b1d0d5bafeb53af236398d8d35af134b16309c329cb18d0c702b0583527f1286150449f5f613aa25a9205cefed519a8f96a545f4c97c924a2e1d90428db260208401526040830190815260408360608160076107cf195a01fa156103ab57815190526020810151606083015260409160809060066107cf195a01fa156103ab57565b604051917f036c36c424bbe7028bbb5a1a7204ce83298dc82585baa25b067a5735eb468b5383527f2f8db557215732672da9ed9a01c897e651b08109b8ac838de2f3c58f92a7d29560208401526040830190815260408360608160076107cf195a01fa156103ab57815190526020810151606083015260409160809060066107cf195a01fa156103ab57565b604051917f06cbd852942b9939343fbbd8e44fcfd54b7b7ec4e3bcb7580064a0215c854ae783527f179cc4bb724b7530d90070547f15d3cbe737737618f5758d09571a0324406e0160208401526040830190815260408360608160076107cf195a01fa156103ab57815190526020810151606083015260409160809060066107cf195a01fa156103ab57565b604051917f0127109c2467a05227ec37818275507102375ed6c3c4e0414fec95a0e6e6432983527f165a67334d820ffd4b2b246bb06cc763a1cac702f392697118fac2c13d9caea760208401526040830190815260408360608160076107cf195a01fa156103ab57815190526020810151606083015260409160809060066107cf195a01fa156103ab57565b604051917f0ae2c67727480ad9bd99db1d0f03df81c0b9ba70c2762556651cec046333879c83527f145e03e3559acb543d6dd5866c8af1732a3b1e3645a5a3008011b1bd8cc7ddcd60208401526040830190815260408360608160076107cf195a01fa156103ab57815190526020810151606083015260409160809060066107cf195a01fa156103ab57565b604051917f1c9d2d6dbb232f2d2accaef11c5c9c29c9d670be49c8f55d252d76293a5d42bc83527f0cb2137b62f0a213f2b13b17ee4290f71cc78e84ab479d3035c310932934ce6560208401526040830190815260408360608160076107cf195a01fa156103ab57815190526020810151606083015260409160809060066107cf195a01fa156103ab57565b604051917f1d15dfe8a2377d26b207a510d6ca5a23e8bdc7f0fc22d9027eaf98c18bb9423683527f1bc1c9f6b610285724ada53feb3a51f0bcdf165ec5ea27d15e3c96ae0257365960208401526040830190815260408360608160076107cf195a01fa156103ab57815190526020810151606083015260409160809060066107cf195a01fa156103ab57565b604051917f03c35f1d716a4133e0fb7a9bd05c280137021239e30f67974d56f632998f596383527f24b5f4b2a9ace532d992df6d652fe24839fe1c3157ceedf7f49917ac6cca764260208401526040830190815260408360608160076107cf195a01fa156103ab57815190526020810151606083015260409160809060066107cf195a01fa156103ab57565b604051917f0304b1355cdab27a0d801b04c1876f332f7d94616932624f3f8bf21f7331f75383527f1a0a24483c2352f56698c99ff258961e1647a85b339dce8b95bb7c4bb5d69d2d60208401526040830190815260408360608160076107cf195a01fa156103ab57815190526020810151606083015260409160809060066107cf195a01fa156103ab57565b604051917f1fdde6e11bec5bdd54b90645f93fb0c9d218f8be993337d950f9a9f8adce3dc583527f1b4737bd4ac2390713c0d7ce89f987375a2addddd2e114dc84835f50c070a03d60208401526040830190815260408360608160076107cf195a01fa156103ab57815190526020810151606083015260409160809060066107cf195a01fa156103ab57565b604051917f155ce484f8b707fb3dc9b689dcd6eb1a5e277f4f7eeb2c69d81afb5472f995af83527f0897f40d2422894e4be8608579459116b1b4e079bcc982040a8b3690c7fa612860208401526040830190815260408360608160076107cf195a01fa156103ab57815190526020810151606083015260409160809060066107cf195a01fa156103ab57565b604051917f1173bf6cb4cccaffac761318b82ebe605a1dd081df8f5ff3a5cc77ee8222af8583527f066f89758834387a171e77c3f527afe0d151e6a8adf3bc70230e36a3ff74b04460208401526040830190815260408360608160076107cf195a01fa156103ab57815190526020810151606083015260409160809060066107cf195a01fa156103ab57565b604051917f1adac80351ee5b66402c6bd74f1c9485e4820b7acce92e645cf5b5a165b7e03283527f030e93c22a554e00aa0d12e6c81f19c659c9f5e20ef8cf5ce8644e926de61aae60208401526040830190815260408360608160076107cf195a01fa156103ab57815190526020810151606083015260409160809060066107cf195a01fa156103ab57565b604051917f24e7f3352abd44574cc24823f3cd9b8bcc2a7b2b2cb550ea57e5fff3f5f6b25e83527f200ccf704c6a311c47538f8897f9d50d896b75b51ccc4b3d3b243e7f7b65266260208401526040830190815260408360608160076107cf195a01fa156103ab57815190526020810151606083015260409160809060066107cf195a01fa156103ab57565b604051917f1251f0fabd148805b15c6bd7e46ef5765dd992c5edbdb151db3c0ddbdaa127dd83527f2e561657073c9a96c44ef7aa039d9076d38c3a3b9417e82a05fe5db620f16e2960208401526040830190815260408360608160076107cf195a01fa156103ab57815190526020810151606083015260409160809060066107cf195a01fa156103ab57565b604051917f21d2728fc8f1912f107bbe73691a6d6b6bb019515f64f5ff34d9cf7cac148c1783527f01ddd4b7926ec214e222918d8cfc2fcd6c36405cf9485757fba768bfcea2397760208401526040830190815260408360608160076107cf195a01fa156103ab57815190526020810151606083015260409160809060066107cf195a01fa156103ab57565b604051917f03c148b0b107105dafccee1379f20f0ade9baf922be0d7565975489ff89ea6c383527f0c590051acd2c7e99c56262300aa70e895bd7da986906da9d05b74a71670524960208401526040830190815260408360608160076107cf195a01fa156103ab57815190526020810151606083015260409160809060066107cf195a01fa156103ab57565b604051917f0eb5c4f8fecac10766370ea0a679024aa1ddc62cc2798d59dff38eea505a55c283527f0f6a35d85046e5bd8c78291559f5d9f29f4e5f549a069052d96064d5ec78dee160208401526040830190815260408360608160076107cf195a01fa156103ab57815190526020810151606083015260409160809060066107cf195a01fa156103ab57565b604051917f0e5d99f89824276c12276d9f267ae21814eb3bce07ca001c0117dc543260a39e83527f02e4a35e5b6db1e413c7401e08f16644934e9e87ade3fe150a38d4da12295fe060208401526040830190815260408360608160076107cf195a01fa156103ab57815190526020810151606083015260409160809060066107cf195a01fa156103ab57565b604051917f2971edeb2a5abb241298fff4f6cab77adc69cae7a631f565bbaa14142127131583527f1af01c263e08189c53da051e0a665ab7a4acd3a9a077921cea0116c177079fa960208401526040830190815260408360608160076107cf195a01fa156103ab57815190526020810151606083015260409160809060066107cf195a01fa156103ab57565b604051917f2f662ec58bfbbb219b5e62441bfc2f4eb7f4a64ad291b2268463bf218e67390e83527f0ab9011553edb881a8b98173c1531f08eebd113248593f802388bae7573b299160208401526040830190815260408360608160076107cf195a01fa156103ab57815190526020810151606083015260409160809060066107cf195a01fa156103ab57565b604051917f269d7cd1624bc48ae354304c225065de1ad27da1878d8de0b1a94e498f5a422b83527f11158d1a7a4bd638abcec4d6decae818b86ff5bed8956e732b026dc1d5845d4560208401526040830190815260408360608160076107cf195a01fa156103ab57815190526020810151606083015260409160809060066107cf195a01fa156103ab57565b604051917f2b4ad441d4613c88b9df6ad5e57db1035accc3473c84026dcb33a2bb1f3bc7b383527f189953df97395098c4ee3fab0b2c47cd16dc6032d28f88a43f8878a5942817e160208401526040830190815260408360608160076107cf195a01fa156103ab57815190526020810151606083015260409160809060066107cf195a01fa156103ab57565b604051917f037041347b5d399d175fdf7474fb18cf7f60b027c79c2d9e111464018f45d41f83527f0d106245d4f899f9af26084e5990e3a0db9c9415a35b927d24090635ec61816a60208401526040830190815260408360608160076107cf195a01fa156103ab57815190526020810151606083015260409160809060066107cf195a01fa156103ab57565b604051917f044d72d4da9d1f0a46c074ef8ca505e4ee355910e8746c8e84233cdeebe8807c83527f087ef719628eb82ad79b676bedc7b81bc1e594241af658b12cabbe4ad728542560208401526040830190815260408360608160076107cf195a01fa156103ab57815190526020810151606083015260409160809060066107cf195a01fa156103ab57565b604051917f1eeb2afa4a099ec91b6dfdcdb0cc08bbc717b36deb6f046cb881a2c667c6246983527f0f1b8b7cf42987fe01d0b76b7eaeee368f9e9c35c9c3f10264f6812ff75eb08860208401526040830190815260408360608160076107cf195a01fa156103ab57815190526020810151606083015260409160809060066107cf195a01fa156103ab57565b604051917f059302c7de4c64686cb8b98a6419a2c56aeb2506924a71887abf0371a1d9397f83527e6fa9bf8ac0971c9b8d8c2b4b4a13ba3fd204294e91a3eceae953e84ec90b1660208401526040830190815260408360608160076107cf195a01fa156103ab57815190526020810151606083015260409160809060066107cf195a01fa156103ab57565b604051917f08b71e2826d66ad0ad20e87feec72faad425986498aeba49e3978bccb17a303983527f2c2f749ea5268ed4e269c0330f941348e960dc782e564b8b9387342d94498fce60208401526040830190815260408360608160076107cf195a01fa156103ab57815190526020810151606083015260409160809060066107cf195a01fa156103ab57565b604051917f0fed61666d3c723cd9dc56c286618b2d1a01e33c490cb2b5de6221bd2d9c73d383527f25bf050073de92682ffb60427108e4065814591085435b81ad60d7012264f28160208401526040830190815260408360608160076107cf195a01fa156103ab57815190526020810151606083015260409160809060066107cf195a01fa156103ab57565b604051917f28cb41aae491d6ca342d1b8c85a3feee0b715cb201890eda1ea8a75414fc5c2e83527f15055046674e58fecaa1bc1451fc422777b284ceae50b064c95540adc2bc062b60208401526040830190815260408360608160076107cf195a01fa156103ab57815190526020810151606083015260409160809060066107cf195a01fa156103ab57565b604051917f294eae4b2d6ac324b11ebe56978ccb5896fc06a88ec299dd1d036d47ff4c63eb83527f0121f7827a42eeab5802a7e43f0ec8aa7a5d8edaba69de5fa23b073578da8aea60208401526040830190815260408360608160076107cf195a01fa156103ab57815190526020810151606083015260409160809060066107cf195a01fa156103ab57565b907f30644e72e131a029b85045b68181585d97816a916871ca8d3c208c16d87cfd47602080937f193674d1b9b1c26da6ce1ec0e9092002d75fb4c20a55cccd615b84f62fe964486080527f2f5e6803e281929ff41a57f7bc4d9322875323c6dcd3122149937b93e38f5e1e60a0526126a06101043560806103b3565b6126ae61012435608061043f565b6126bc6101443560806104cb565b6126ca610164356080610557565b6126d86101843560806105e3565b6126e66101a435608061066f565b6126f46101c43560806106fb565b6127026101e4356080610786565b612710610204356080610812565b61271e61022435608061089e565b61272c61024435608061092a565b61273a6102643560806109b6565b612748610284356080610a42565b6127566102a4356080610ace565b6127646102c4356080610b5a565b6127726102e4356080610be6565b612780610304356080610c72565b61278e610324356080610cfe565b61279c610344356080610d8a565b6127aa610364356080610e16565b6127b8610384356080610ea2565b6127c66103a4356080610f2e565b6127d46103c4356080610fba565b6127e26103e4356080611045565b6127f06104043560806110d1565b6127fe61042435608061115d565b61280c6104443560806111e9565b61281a610464356080611275565b612828610484356080611301565b6128366104a435608061138d565b6128446104c4356080611419565b6128526104e43560806114a5565b612860610504356080611531565b61286e6105243560806115bd565b61287c610544356080611649565b61288a6105643560806116d5565b612898610584356080611761565b6128a66105a43560806117ed565b6128b46105c4356080611879565b6128c26105e4356080611905565b6128d0610604356080611991565b6128de610624356080611a1d565b6128ec610644356080611aa9565b6128fa610664356080611b35565b612908610684356080611bc1565b6129166106a4356080611c4d565b6129246106c4356080611cd9565b6129326106e4356080611d65565b612940610704356080611df1565b61294e610724356080611e7d565b61295c610744356080611f09565b61296a610764356080611f95565b612978610784356080612021565b6129866107a43560806120ad565b6129946107c4356080612139565b6129a26107e43560806121c5565b6129b0610804356080612251565b6129be6108243560806122dd565b6129cc610844356080612369565b6129da6108643560806123f4565b6129e8610884356080612480565b6129f66108a435608061250c565b612a046108c4356080612598565b80356101005201358103066101205260443561014052606435610160526084356101805260a4356101a0527f2d4d9aa7e302d9df41749d5507949d05dbea33fbb16c643b22f599a2be6df2e26101c0527f14bedd503c37ceb061d8ec60209fe345ce89830a19230301f076caff004d19266101e0527f0967032fcbf776d1afc985f88877f182d38480a653f2decaa9794cbc3bf3060c610200527f0e187847ad4c798374d0d6732bf501847dd68bc0e071241e0213bc7fc13db7ab610220527f304cfbd1e08a704a99f5e847d93f8c3caafddec46b7a0d379da69a4d112346a7610240527f1739c1b1a457a8c7313123d24d2f9192f896b7c63eea05a9d57f06547ad0cec8610260526080516102805260a0516102a0527f198e9393920d483a7260bfb731fb5d25f1aa493335a9e71297e485b7aef312c26102c0527f1800deef121f1e76426a00665e5c4479674322d4f75edadd46debd5cd992f6ed6102e0527f090689d0585ff075ec9e99ad690c3395bc4b313370b38ef355acdadcd122975b610300527f12c85ea5db8c6deb4aab71808dcb408fe3d1e7690c43d37b4ce6cc0166fa7daa610320528035610340520135610360527f198e9393920d483a7260bfb731fb5d25f1aa493335a9e71297e485b7aef312c2610380527f1800deef121f1e76426a00665e5c4479674322d4f75edadd46debd5cd992f6ed6103a0527f090689d0585ff075ec9e99ad690c3395bc4b313370b38ef355acdadcd122975b6103c0527f12c85ea5db8c6deb4aab71808dcb408fe3d1e7690c43d37b4ce6cc0166fa7daa6103e05260206101006103008160086107cf195a01fa61010051169056fea26469706673582212203f12471a01a3d3e98a4ad05cea944a32a92e9a510c31c2a46542fc689561a8b664736f6c634300081b0033",
  "devdoc": {
    "kind": "dev",
    "methods": {},
    "version": 1
  },
  "userdoc": {
    "kind": "user",
    "methods": {},
    "version": 1
  },
  "storageLayout": {
    "storage": [],
    "types": null
  }
}